{"abi":[{"type":"constructor","inputs":[{"name":"_usdc","type":"address","internalType":"address"},{"name":"_pyth","type":"address","internalType":"address"},{"name":"_ethUsdPriceId","type":"bytes32","internalType":"bytes32"}],"stateMutability":"nonpayable"},{"type":"receive","stateMutability":"payable"},{"type":"function","name":"CHALLENGE_PERIOD","inputs":[],"outputs":[{"name":"","type":"uint256","internalType":"uint256"}],"stateMutability":"view"},{"type":"function","name":"MIN_DEPOSIT","inputs":[],"outputs":[{"name":"","type":"uint256","internalType":"uint256"}],"stateMutability":"view"},{"type":"function","name":"balances","inputs":[{"name":"","type":"address","internalType":"address"}],"outputs":[{"name":"","type":"uint256","internalType":"uint256"}],"stateMutability":"view"},{"type":"function","name":"calculateCollateral","inputs":[{"name":"strikePrice","type":"uint256","internalType":"uint256"},{"name":"amount","type":"uint256","internalType":"uint256"},{"name":"isCall","type":"bool","internalType":"bool"}],"outputs":[{"name":"","type":"uint256","internalType":"uint256"}],"stateMutability":"pure"},{"type":"function","name":"calculatePayout","inputs":[{"name":"option","type":"tuple","internalType":"struct OptiChannelSettlement.Option","components":[{"name":"id","type":"bytes32","internalType":"bytes32"},{"name":"writer","type":"address","internalType":"address"},{"name":"holder","type":"address","internalType":"address"},{"name":"strikePrice","type":"uint256","internalType":"uint256"},{"name":"premium","type":"uint256","internalType":"uint256"},{"name":"amount","type":"uint256","internalType":"uint256"},{"name":"expiry","type":"uint256","internalType":"uint256"},{"name":"isCall","type":"bool","internalType":"bool"},{"name":"status","type":"uint8","internalType":"enum OptiChannelSettlement.OptionStatus"}]},{"name":"settlementPrice","type":"uint256","internalType":"uint256"}],"outputs":[{"name":"","type":"uint256","internalType":"uint256"}],"stateMutability":"pure"},{"type":"function","name":"cancelOption","inputs":[{"name":"optionId","type":"bytes32","internalType":"bytes32"}],"outputs":[],"stateMutability":"nonpayable"},{"type":"function","name":"challengeChannel","inputs":[{"name":"channelId","type":"bytes32","internalType":"bytes32"}],"outputs":[],"stateMutability":"nonpayable"},{"type":"function","name":"channels","inputs":[{"name":"","type":"bytes32","internalType":"bytes32"}],"outputs":[{"name":"channelId","type":"bytes32","internalType":"bytes32"},{"name":"partyA","type":"address","internalType":"address"},{"name":"partyB","type":"address","internalType":"address"},{"name":"balanceA","type":"uint256","internalType":"uint256"},{"name":"balanceB","type":"uint256","internalType":"uint256"},{"name":"nonce","type":"uint256","internalType":"uint256"},{"name":"challengeExpiry","type":"uint256","internalType":"uint256"},{"name":"finalized","type":"bool","internalType":"bool"}],"stateMutability":"view"},{"type":"function","name":"createOption","inputs":[{"name":"strikePrice","type":"uint256","internalType":"uint256"},{"name":"premium","type":"uint256","internalType":"uint256"},{"name":"amount","type":"uint256","internalType":"uint256"},{"name":"expiry","type":"uint256","internalType":"uint256"},{"name":"isCall","type":"bool","internalType":"bool"}],"outputs":[{"name":"optionId","type":"bytes32","internalType":"bytes32"}],"stateMutability":"nonpayable"},{"type":"function","name":"deposit","inputs":[{"name":"amount","type":"uint256","internalType":"uint256"}],"outputs":[],"stateMutability":"nonpayable"},{"type":"function","name":"disputeSettlement","inputs":[{"name":"optionId","type":"bytes32","internalType":"bytes32"},{"name":"pythPriceUpdate","type":"bytes[]","internalType":"bytes[]"}],"outputs":[],"stateMutability":"payable"},{"type":"function","name":"ethUsdPriceId","inputs":[],"outputs":[{"name":"","type":"bytes32","internalType":"bytes32"}],"stateMutability":"view"},{"type":"function","name":"exerciseOption","inputs":[{"name":"optionId","type":"bytes32","internalType":"bytes32"},{"name":"pythPriceUpdate","type":"bytes[]","internalType":"bytes[]"}],"outputs":[],"stateMutability":"payable"},{"type":"function","name":"expireOption","inputs":[{"name":"optionId","type":"bytes32","internalType":"bytes32"}],"outputs":[],"stateMutability":"nonpayable"},{"type":"function","name":"finalizeChannel","inputs":[{"name":"channelId","type":"bytes32","internalType":"bytes32"}],"outputs":[],"stateMutability":"nonpayable"},{"type":"function","name":"finalizeSettlement","inputs":[{"name":"optionId","type":"bytes32","internalType":"bytes32"}],"outputs":[],"stateMutability":"nonpayable"},{"type":"function","name":"getBalance","inputs":[{"name":"user","type":"address","internalType":"address"}],"outputs":[{"name":"","type":"uint256","internalType":"uint256"}],"stateMutability":"view"},{"type":"function","name":"getChannel","inputs":[{"name":"channelId","type":"bytes32","internalType":"bytes32"}],"outputs":[{"name":"","type":"tuple","internalType":"struct OptiChannelSettlement.ChannelState","components":[{"name":"channelId","type":"bytes32","internalType":"bytes32"},{"name":"partyA","type":"address","internalType":"address"},{"name":"partyB","type":"address","internalType":"address"},{"name":"balanceA","type":"uint256","internalType":"uint256"},{"name":"balanceB","type":"uint256","internalType":"uint256"},{"name":"nonce","type":"uint256","internalType":"uint256"},{"name":"challengeExpiry","type":"uint256","internalType":"uint256"},{"name":"finalized","type":"bool","internalType":"bool"}]}],"stateMutability":"view"},{"type":"function","name":"getEthUsdPrice","inputs":[],"outputs":[{"name":"price","type":"uint256","internalType":"uint256"},{"name":"confidence","type":"uint256","internalType":"uint256"}],"stateMutability":"view"},{"type":"function","name":"getOption","inputs":[{"name":"optionId","type":"bytes32","internalType":"bytes32"}],"outputs":[{"name":"","type":"tuple","internalType":"struct OptiChannelSettlement.Option","components":[{"name":"id","type":"bytes32","internalType":"bytes32"},{"name":"writer","type":"address","internalType":"address"},{"name":"holder","type":"address","internalType":"address"},{"name":"strikePrice","type":"uint256","internalType":"uint256"},{"name":"premium","type":"uint256","internalType":"uint256"},{"name":"amount","type":"uint256","internalType":"uint256"},{"name":"expiry","type":"uint256","internalType":"uint256"},{"name":"isCall","type":"bool","internalType":"bool"},{"name":"status","type":"uint8","internalType":"enum OptiChannelSettlement.OptionStatus"}]}],"stateMutability":"view"},{"type":"function","name":"getPendingSettlement","inputs":[{"name":"optionId","type":"bytes32","internalType":"bytes32"}],"outputs":[{"name":"","type":"tuple","internalType":"struct OptiChannelSettlement.PendingSettlement","components":[{"name":"optionId","type":"bytes32","internalType":"bytes32"},{"name":"settlementPrice","type":"uint256","internalType":"uint256"},{"name":"payout","type":"uint256","internalType":"uint256"},{"name":"winner","type":"address","internalType":"address"},{"name":"challengeExpiry","type":"uint256","internalType":"uint256"},{"name":"finalized","type":"bool","internalType":"bool"}]}],"stateMutability":"view"},{"type":"function","name":"openChannel","inputs":[{"name":"partyB","type":"address","internalType":"address"},{"name":"initialBalanceA","type":"uint256","internalType":"uint256"},{"name":"initialBalanceB","type":"uint256","internalType":"uint256"}],"outputs":[{"name":"channelId","type":"bytes32","internalType":"bytes32"}],"stateMutability":"nonpayable"},{"type":"function","name":"options","inputs":[{"name":"","type":"bytes32","internalType":"bytes32"}],"outputs":[{"name":"id","type":"bytes32","internalType":"bytes32"},{"name":"writer","type":"address","internalType":"address"},{"name":"holder","type":"address","internalType":"address"},{"name":"strikePrice","type":"uint256","internalType":"uint256"},{"name":"premium","type":"uint256","internalType":"uint256"},{"name":"amount","type":"uint256","internalType":"uint256"},{"name":"expiry","type":"uint256","internalType":"uint256"},{"name":"isCall","type":"bool","internalType":"bool"},{"name":"status","type":"uint8","internalType":"enum OptiChannelSettlement.OptionStatus"}],"stateMutability":"view"},{"type":"function","name":"pendingSettlements","inputs":[{"name":"","type":"bytes32","internalType":"bytes32"}],"outputs":[{"name":"optionId","type":"bytes32","internalType":"bytes32"},{"name":"settlementPrice","type":"uint256","internalType":"uint256"},{"name":"payout","type":"uint256","internalType":"uint256"},{"name":"winner","type":"address","internalType":"address"},{"name":"challengeExpiry","type":"uint256","internalType":"uint256"},{"name":"finalized","type":"bool","internalType":"bool"}],"stateMutability":"view"},{"type":"function","name":"purchaseOption","inputs":[{"name":"optionId","type":"bytes32","internalType":"bytes32"}],"outputs":[],"stateMutability":"nonpayable"},{"type":"function","name":"pyth","inputs":[],"outputs":[{"name":"","type":"address","internalType":"contract IPyth"}],"stateMutability":"view"},{"type":"function","name":"updateChannelState","inputs":[{"name":"channelId","type":"bytes32","internalType":"bytes32"},{"name":"newBalanceA","type":"uint256","internalType":"uint256"},{"name":"newBalanceB","type":"uint256","internalType":"uint256"},{"name":"nonce","type":"uint256","internalType":"uint256"},{"name":"sigA","type":"bytes","internalType":"bytes"},{"name":"sigB","type":"bytes","internalType":"bytes"}],"outputs":[],"stateMutability":"nonpayable"},{"type":"function","name":"usdc","inputs":[],"outputs":[{"name":"","type":"address","internalType":"contract IERC20"}],"stateMutability":"view"},{"type":"function","name":"withdraw","inputs":[{"name":"amount","type":"uint256","internalType":"uint256"},{"name":"nonce","type":"uint256","internalType":"uint256"},{"name":"signature","type":"bytes","internalType":"bytes"}],"outputs":[],"stateMutability":"nonpayable"},{"type":"function","name":"withdrawDirect","inputs":[{"name":"amount","type":"uint256","internalType":"uint256"}],"outputs":[],"stateMutability":"nonpayable"},{"type":"function","name":"withdrawEth","inputs":[],"outputs":[],"stateMutability":"nonpayable"},{"type":"function","name":"withdrawalNonces","inputs":[{"name":"","type":"address","internalType":"address"}],"outputs":[{"name":"","type":"uint256","internalType":"uint256"}],"stateMutability":"view"},{"type":"event","name":"ChannelChallenged","inputs":[{"name":"channelId","type":"bytes32","indexed":true,"internalType":"bytes32"},{"name":"challenger","type":"address","indexed":false,"internalType":"address"},{"name":"challengeExpiry","type":"uint256","indexed":false,"internalType":"uint256"}],"anonymous":false},{"type":"event","name":"ChannelFinalized","inputs":[{"name":"channelId","type":"bytes32","indexed":true,"internalType":"bytes32"}],"anonymous":false},{"type":"event","name":"ChannelOpened","inputs":[{"name":"channelId","type":"bytes32","indexed":true,"internalType":"bytes32"},{"name":"partyA","type":"address","indexed":false,"internalType":"address"},{"name":"partyB","type":"address","indexed":false,"internalType":"address"}],"anonymous":false},{"type":"event","name":"ChannelUpdated","inputs":[{"name":"channelId","type":"bytes32","indexed":true,"internalType":"bytes32"},{"name":"nonce","type":"uint256","indexed":false,"internalType":"uint256"},{"name":"balanceA","type":"uint256","indexed":false,"internalType":"uint256"},{"name":"balanceB","type":"uint256","indexed":false,"internalType":"uint256"}],"anonymous":false},{"type":"event","name":"Deposited","inputs":[{"name":"user","type":"address","indexed":true,"internalType":"address"},{"name":"amount","type":"uint256","indexed":false,"internalType":"uint256"},{"name":"newBalance","type":"uint256","indexed":false,"internalType":"uint256"}],"anonymous":false},{"type":"event","name":"OptionCancelled","inputs":[{"name":"optionId","type":"bytes32","indexed":true,"internalType":"bytes32"}],"anonymous":false},{"type":"event","name":"OptionCreated","inputs":[{"name":"optionId","type":"bytes32","indexed":true,"internalType":"bytes32"},{"name":"writer","type":"address","indexed":true,"internalType":"address"},{"name":"strike","type":"uint256","indexed":false,"internalType":"uint256"},{"name":"isCall","type":"bool","indexed":false,"internalType":"bool"}],"anonymous":false},{"type":"event","name":"OptionExercised","inputs":[{"name":"optionId","type":"bytes32","indexed":true,"internalType":"bytes32"},{"name":"holder","type":"address","indexed":true,"internalType":"address"},{"name":"settlementPrice","type":"uint256","indexed":false,"internalType":"uint256"},{"name":"payout","type":"uint256","indexed":false,"internalType":"uint256"}],"anonymous":false},{"type":"event","name":"OptionExpired","inputs":[{"name":"optionId","type":"bytes32","indexed":true,"internalType":"bytes32"}],"anonymous":false},{"type":"event","name":"OptionPurchased","inputs":[{"name":"optionId","type":"bytes32","indexed":true,"internalType":"bytes32"},{"name":"holder","type":"address","indexed":true,"internalType":"address"},{"name":"premium","type":"uint256","indexed":false,"internalType":"uint256"}],"anonymous":false},{"type":"event","name":"SettlementDisputed","inputs":[{"name":"optionId","type":"bytes32","indexed":true,"internalType":"bytes32"},{"name":"disputer","type":"address","indexed":true,"internalType":"address"}],"anonymous":false},{"type":"event","name":"SettlementFinalized","inputs":[{"name":"optionId","type":"bytes32","indexed":true,"internalType":"bytes32"},{"name":"winner","type":"address","indexed":true,"internalType":"address"},{"name":"payout","type":"uint256","indexed":false,"internalType":"uint256"}],"anonymous":false},{"type":"event","name":"SettlementInitiated","inputs":[{"name":"optionId","type":"bytes32","indexed":true,"internalType":"bytes32"},{"name":"settlementPrice","type":"uint256","indexed":false,"internalType":"uint256"},{"name":"payout","type":"uint256","indexed":false,"internalType":"uint256"},{"name":"challengeExpiry","type":"uint256","indexed":false,"internalType":"uint256"}],"anonymous":false},{"type":"event","name":"Withdrawn","inputs":[{"name":"user","type":"address","indexed":true,"internalType":"address"},{"name":"amount","type":"uint256","indexed":false,"internalType":"uint256"},{"name":"newBalance","type":"uint256","indexed":false,"internalType":"uint256"}],"anonymous":false},{"type":"error","name":"AmountTooLow","inputs":[]},{"type":"error","name":"ChallengePeriodActive","inputs":[]},{"type":"error","name":"ChallengePeriodExpired","inputs":[]},{"type":"error","name":"ChannelAlreadyFinalized","inputs":[]},{"type":"error","name":"ChannelNotFound","inputs":[]},{"type":"error","name":"ECDSAInvalidSignature","inputs":[]},{"type":"error","name":"ECDSAInvalidSignatureLength","inputs":[{"name":"length","type":"uint256","internalType":"uint256"}]},{"type":"error","name":"ECDSAInvalidSignatureS","inputs":[{"name":"s","type":"bytes32","internalType":"bytes32"}]},{"type":"error","name":"InsufficientBalance","inputs":[]},{"type":"error","name":"InvalidChannelState","inputs":[]},{"type":"error","name":"InvalidNonce","inputs":[]},{"type":"error","name":"InvalidSignature","inputs":[]},{"type":"error","name":"NotOptionHolder","inputs":[]},{"type":"error","name":"NotOptionWriter","inputs":[]},{"type":"error","name":"OptionAlreadyExpired","inputs":[]},{"type":"error","name":"OptionNotActive","inputs":[]},{"type":"error","name":"OptionNotExpired","inputs":[]},{"type":"error","name":"OptionNotFound","inputs":[]},{"type":"error","name":"PythPriceStale","inputs":[]},{"type":"error","name":"ReentrancyGuardReentrantCall","inputs":[]},{"type":"error","name":"SafeERC20FailedOperation","inputs":[{"name":"token","type":"address","internalType":"address"}]},{"type":"error","name":"SettlementAlreadyFinalized","inputs":[]},{"type":"error","name":"SettlementNotFound","inputs":[]},{"type":"error","name":"UnauthorizedParty","inputs":[]}],"bytecode":{"object":"0x60e060405234801562000010575f80fd5b50604051620038103803806200381083398101604081905262000033916200008f565b60017f9b779b17422d0df92223018b32b4d1fa46e071723d6817e2486d003becc55f00556001600160a01b03928316608052911660a05260c052620000cd565b80516001600160a01b03811681146200008a575f80fd5b919050565b5f805f60608486031215620000a2575f80fd5b620000ad8462000073565b9250620000bd6020850162000073565b9150604084015190509250925092565b60805160a05160c0516136bd620001535f395f8181610415015281816110b501528181611b5901526121a701525f81816109a101528181610fb40152818161102e015281816110e501528181611b8d015281816120a60152818161212001526121d701525f81816102aa01528181611ace0152818161255c015261269d01526136bd5ff3fe6080604052600436106101de575f3560e01c8063a0a8045e116100fd578063cd78054d11610092578063e8af74fe11610062578063e8af74fe1461091e578063efb599e91461093d578063f8b2cb4f1461095c578063f98d06f014610990575f80fd5b8063cd78054d146108ab578063e168f99d146108ca578063e1e158a5146108e9578063e3bde46b146108ff575f80fd5b8063b3cd431a116100cd578063b3cd431a146107ce578063b6b55f25146107e1578063c3a079ed14610800578063c8c132e414610816575f80fd5b8063a0a8045e14610753578063a0ef91df1461077c578063a3f55f0814610790578063ada11369146107af575f80fd5b806351d8f40411610173578063744fb6ca11610143578063744fb6ca146104375780637a7ebd7b14610456578063831c2b821461050c5780639e17c1ec14610651575f80fd5b806351d8f4041461033b5780635b4c35431461035a57806363c25a90146103e55780636a18ec4914610404575f80fd5b806331b94d5c116101ae57806331b94d5c146102865780633e413bee146102995780633f0d2d50146102e457806344374b701461030f575f80fd5b806319f3b062146101e95780631a1534301461020a57806320d93aa71461023c57806327e235e31461025b575f80fd5b366101e557005b5f80fd5b3480156101f4575f80fd5b50610208610203366004612eb1565b6109c3565b005b348015610215575f80fd5b50610229610224366004612f36565b610ba1565b6040519081526020015b60405180910390f35b348015610247575f80fd5b50610208610256366004613023565b610c2b565b348015610266575f80fd5b506102296102753660046130b2565b5f6020819052908152604090205481565b6102086102943660046130cb565b610ec8565b3480156102a4575f80fd5b506102cc7f000000000000000000000000000000000000000000000000000000000000000081565b6040516001600160a01b039091168152602001610233565b3480156102ef575f80fd5b506102296102fe3660046130b2565b60016020525f908152604090205481565b34801561031a575f80fd5b5061032e610329366004612eb1565b6113c5565b6040516102339190613177565b348015610346575f80fd5b506102296103553660046131fc565b6114c5565b348015610365575f80fd5b506103d0610374366004612eb1565b600260208190525f91825260409091208054600182015492820154600383015460048401546005850154600686015460079096015494966001600160a01b03908116969416949293919290919060ff8082169161010090041689565b6040516102339998979695949392919061322c565b3480156103f0575f80fd5b506102296103ff36600461328b565b6116cc565b34801561040f575f80fd5b506102297f000000000000000000000000000000000000000000000000000000000000000081565b348015610442575f80fd5b506102086104513660046132d0565b611910565b348015610461575f80fd5b506104c3610470366004612eb1565b600360208190525f91825260409091208054600182015460028301549383015460048401546005850154600686015460079096015494966001600160a01b03948516969416949293919290919060ff1688565b604080519889526001600160a01b0397881660208a015295909616948701949094526060860192909252608085015260a084015260c0830152151560e082015261010001610233565b348015610517575f80fd5b506105e5610526366004612eb1565b60408051610100810182525f80825260208201819052918101829052606081018290526080810182905260a0810182905260c0810182905260e0810191909152505f908152600360208181526040928390208351610100810185528154815260018201546001600160a01b039081169382019390935260028201549092169382019390935290820154606082015260048201546080820152600582015460a0820152600682015460c082015260079091015460ff16151560e082015290565b60408051825181526020808401516001600160a01b0390811691830191909152838301511691810191909152606080830151908201526080808301519082015260a0808301519082015260c0808301519082015260e09182015115159181019190915261010001610233565b34801561065c575f80fd5b5061070161066b366004612eb1565b6040805160c0810182525f80825260208201819052918101829052606081018290526080810182905260a0810191909152505f90815260046020818152604092839020835160c0810185528154815260018201549281019290925260028101549382019390935260038301546001600160a01b0316606082015290820154608082015260059091015460ff16151560a082015290565b60405161023391908151815260208083015190820152604080830151908201526060808301516001600160a01b0316908201526080808301519082015260a09182015115159181019190915260c00190565b34801561075e575f80fd5b50610767611b4a565b60408051928352602083019190915201610233565b348015610787575f80fd5b50610208611cf6565b34801561079b575f80fd5b506102086107aa366004612eb1565b611d1f565b3480156107ba575f80fd5b506102086107c9366004612eb1565b611e62565b6102086107dc3660046130cb565b611fbd565b3480156107ec575f80fd5b506102086107fb366004612eb1565b612523565b34801561080b575f80fd5b506102296201518081565b348015610821575f80fd5b50610873610830366004612eb1565b600460208190525f91825260409091208054600182015460028301546003840154948401546005909401549294919390926001600160a01b039092169160ff1686565b604080519687526020870195909552938501929092526001600160a01b031660608401526080830152151560a082015260c001610233565b3480156108b6575f80fd5b506102296108c536600461331f565b6125f5565b3480156108d5575f80fd5b506102086108e4366004612eb1565b612635565b3480156108f4575f80fd5b506102296298968081565b34801561090a575f80fd5b50610208610919366004612eb1565b612706565b348015610929575f80fd5b50610208610938366004612eb1565b6128a2565b348015610948575f80fd5b50610208610957366004612eb1565b6129a9565b348015610967575f80fd5b506102296109763660046130b2565b6001600160a01b03165f9081526020819052604090205490565b34801561099b575f80fd5b506102cc7f000000000000000000000000000000000000000000000000000000000000000081565b6109cb612ae5565b5f81815260046020526040902080546109f757604051630b9e631b60e01b815260040160405180910390fd5b600581015460ff1615610a1d576040516319ef547960e31b815260040160405180910390fd5b8060040154421015610a42576040516364b81b1960e11b815260040160405180910390fd5b5f828152600260205260408120600381015460058201546007830154929392610a6f92919060ff166125f5565b600284015490915015610b0257600280840154908301546001600160a01b03165f9081526020819052604081208054909190610aac908490613365565b90915550506002830154811115610afd576002830154610acc9082613378565b60018301546001600160a01b03165f9081526020819052604081208054909190610af7908490613365565b90915550505b610b33565b60018201546001600160a01b03165f9081526020819052604081208054839290610b2d908490613365565b90915550505b60058301805460ff19166001179055600383015460028401546040516001600160a01b039092169186917f0925a437fafdf1224c028f606f20e6b176082978b105095b5118c26dca79537191610b8b91815260200190565b60405180910390a3505050610b9e612b13565b50565b5f8260e0015115610bf7578260600151821115610bf25768056bc75e2d631000008360a00151846060015184610bd79190613378565b610be1919061338b565b610beb91906133a2565b9050610c25565b610c22565b8260600151821015610c225768056bc75e2d631000008360a00151838560600151610bd79190613378565b505f5b92915050565b610c33612ae5565b5f88815260036020526040902060018101546001600160a01b0316610c6b57604051630781f76560e21b815260040160405180910390fd5b600781015460ff1615610c91576040516306cd25f160e31b815260040160405180910390fd5b80600501548611610cb557604051633ab3447f60e11b815260040160405180910390fd5b5f81600401548260030154610cca9190613365565b90505f610cd7898b613365565b9050808214610cf95760405163f806e9d960e01b815260040160405180910390fd5b6040805160208082018e90528183018d9052606082018c9052608082018b90524660a0808401919091528351808403909101815260c090920190925280519101207f19457468657265756d205369676e6564204d6573736167653a0a3332000000005f908152601c829052603c81206001860154604080516020601f8d018190048102820181019092528b81529293506001600160a01b0390911691610dbb918c908c90819084018382808284375f920191909152508693925050612b399050565b6001600160a01b031614610de257604051638baa579f60e01b815260040160405180910390fd5b6002850154604080516020601f8a018190048102820181019092528881526001600160a01b0390921691610e32918a908a90819084018382808284375f920191909152508693925050612b399050565b6001600160a01b031614610e5957604051638baa579f60e01b815260040160405180910390fd5b600385018c9055600485018b9055600585018a9055604080518b8152602081018e90529081018c90528d907f2256ced482ba490e0a4ad72acf529ab4dd2481b104c6aa1b47a67d1a2e19c1669060600160405180910390a25050505050610ebe612b13565b5050505050505050565b610ed0612ae5565b5f8381526004602052604090208054610efc57604051630b9e631b60e01b815260040160405180910390fd5b600581015460ff1615610f22576040516319ef547960e31b815260040160405180910390fd5b80600401544210610f4657604051637222b06b60e11b815260040160405180910390fd5b5f84815260026020526040902060018101546001600160a01b03163314801590610f7d575060028101546001600160a01b03163314155b15610f9b5760405163277d24cb60e01b815260040160405180910390fd5b60405163d47eed4560e01b81525f906001600160a01b037f0000000000000000000000000000000000000000000000000000000000000000169063d47eed4590610feb90889088906004016133e9565b602060405180830381865afa158015611006573d5f803e3d5ffd5b505050506040513d601f19601f8201168201806040525081019061102a9190613481565b90507f00000000000000000000000000000000000000000000000000000000000000006001600160a01b031663ef9e5e288287876040518463ffffffff1660e01b815260040161107b9291906133e9565b5f604051808303818588803b158015611092575f80fd5b505af11580156110a4573d5f803e3d5ffd5b505060405163052571af60e51b81527f00000000000000000000000000000000000000000000000000000000000000006004820152603c60248201525f93507f00000000000000000000000000000000000000000000000000000000000000006001600160a01b0316925063a4ae35e09150604401608060405180830381865afa158015611134573d5f803e3d5ffd5b505050506040513d601f19601f820116820180604052508101906111589190613498565b90505f815f015167ffffffffffffffff169050600719826040015160030b12156111b2576008826040015161118c90613536565b6111969190613557565b6111a190600a61365e565b6111ab90826133a2565b90506111ec565b600719826040015160030b13156111ec5760408201516111d490600719613557565b6111df90600a61365e565b6111e9908261338b565b90505b60408051610120810182528554815260018601546001600160a01b03908116602083015260028701541691810191909152600385015460608201526004808601546080830152600586015460a0830152600686015460c0830152600786015460ff808216151560e08501525f936112959390928992610100808601939204169081111561127b5761127b613143565b600481111561128c5761128c613143565b90525083610ba1565b60018701839055600287018190559050806112bd5760018501546001600160a01b03166112cc565b60028501546001600160a01b03165b6003870180546001600160a01b0319166001600160a01b03929092169190911790556112fb6201518042613365565b600487015560405133908a907faacc989e257f4222d03d58e14aebf521cea94e78b0b1248c5537157458eb4f1f905f90a3600486015460408051848152602081018490529081019190915289907f98d2e733005f2c8fff26aa68c4bbcb5ea9d2a936fb115fae33a25b1c5cc1a8b29060600160405180910390a2833411156113b257336108fc61138b8634613378565b6040518115909202915f818181858888f193505050501580156113b0573d5f803e3d5ffd5b505b5050505050506113c0612b13565b505050565b61141160408051610120810182525f80825260208201819052918101829052606081018290526080810182905260a0810182905260c0810182905260e081018290529061010082015290565b5f828152600260208181526040928390208351610120810185528154815260018201546001600160a01b03908116938201939093529281015490911692820192909252600382015460608201526004808301546080830152600583015460a0830152600683015460c0830152600783015460ff808216151560e085015292939261010080860193920416908111156114ab576114ab613143565b60048111156114bc576114bc613143565b90525092915050565b5f6114ce612ae5565b335f908152602081905260409020548311156114fd57604051631e9acf1760e31b815260040160405180910390fd5b6001600160a01b0384165f9081526020819052604090205482111561153557604051631e9acf1760e31b815260040160405180910390fd5b335f9081526020819052604081208054859290611553908490613378565b90915550506001600160a01b0384165f908152602081905260408120805484929061157f908490613378565b90915550506040516001600160601b031933606090811b8216602084015286901b16603482015242604882015260680160408051808303601f19018152828252805160209182012061010084018352808452338285018181526001600160a01b038a8116878701818152606089018c815260808a018c81525f60a08c0181815260c08d0182815260e08e018381528b84526003808e52938e90209e518f55985160018f0180546001600160a01b0319908116928b16929092179055955160028f0180549097169816979097179094559151918b01919091555160048a01555160058901559051600688015590516007909601805460ff19169615159690961790955583519081529182019390935291925082917fc243bfcf94f250eff29e718e9e3c9b671ace5949fc6676df72acfac6da6614f7910160405180910390a26116c5612b13565b9392505050565b5f6116d5612ae5565b5f6116e18786856125f5565b335f9081526020819052604090205490915081111561171357604051631e9acf1760e31b815260040160405180910390fd5b335f9081526020819052604081208054839290611731908490613378565b90915550506040516001600160601b03193360601b1660208201526034810188905260548101879052607481018690526094810185905283151560f81b60b48201524260b582015260d501604051602081830303815290604052805190602001209150604051806101200160405280838152602001336001600160a01b031681526020015f6001600160a01b0316815260200188815260200187815260200186815260200185815260200184151581526020015f60048111156117f6576117f6613143565b90525f8381526002602081815260409283902084518155908401516001820180546001600160a01b03199081166001600160a01b039384161790915593850151928201805490941692169190911790915560608201516003820155608082015160048083019190915560a0830151600583015560c0830151600683015560e083015160078301805460ff19811692151592831782556101008087015194929361ffff1990921661ff0019909216919091179184908111156118b9576118b9613143565b02179055505060408051898152851515602082015233925084917f45bffc18df076eb134f149bfdad77dce129e25bdc6f92fbeecb8c05d172eb3bc910160405180910390a350611907612b13565b95945050505050565b611918612ae5565b335f9081526020819052604090205484111561194757604051631e9acf1760e31b815260040160405180910390fd5b335f90815260016020526040902054831461197557604051633ab3447f60e11b815260040160405180910390fd5b6040516001600160601b031933606090811b82166020840152603483018790526054830186905246607484015230901b1660948201525f9060a80160408051601f198184030181529082905280516020918201207f19457468657265756d205369676e6564204d6573736167653a0a33320000000091830191909152603c820152605c016040516020818303038152906040528051906020012090505f611a5384848080601f0160208091040260200160405190810160405280939291908181526020018383808284375f920191909152508693925050612b399050565b90506001600160a01b0381163314611a7e57604051638baa579f60e01b815260040160405180910390fd5b335f908152600160205260408120805491611a988361366f565b9091555050335f9081526020819052604081208054889290611abb908490613378565b90915550611af590506001600160a01b037f0000000000000000000000000000000000000000000000000000000000000000163388612b61565b335f81815260208181526040918290205482518a8152918201527f92ccf450a286a957af52509bc1c9939d1a6a481783e142e41e2499f0bb66ebc6910160405180910390a25050611b44612b13565b50505050565b6040516396834ad360e01b81527f000000000000000000000000000000000000000000000000000000000000000060048201525f90819081906001600160a01b037f000000000000000000000000000000000000000000000000000000000000000016906396834ad390602401608060405180830381865afa158015611bd2573d5f803e3d5ffd5b505050506040513d601f19601f82011682018060405250810190611bf69190613498565b9050805f015167ffffffffffffffff169250806020015167ffffffffffffffff169150600719816040015160030b1215611c915760088160400151611c3a90613536565b611c449190613557565b611c4f90600a61365e565b611c5990846133a2565b925060088160400151611c6b90613536565b611c759190613557565b611c8090600a61365e565b611c8a90836133a2565b9150509091565b600719816040015160030b1315611cf1576040810151611cb390600719613557565b611cbe90600a61365e565b611cc8908461338b565b92508060400151600719611cdc9190613557565b611ce790600a61365e565b611c8a908361338b565b509091565b60405133904780156108fc02915f818181858888f19350505050158015610b9e573d5f803e3d5ffd5b611d27612ae5565b5f81815260026020526040902060018101546001600160a01b0316611d5f57604051637b9bd77360e01b815260040160405180910390fd5b60018101546001600160a01b03163314611d8c576040516355afb53360e01b815260040160405180910390fd5b5f6007820154610100900460ff166004811115611dab57611dab613143565b14611dc95760405163155fdee560e21b815260040160405180910390fd5b6003810154600582015460078301545f92611de892909160ff166125f5565b60018301546001600160a01b03165f90815260208190526040812080549293508392909190611e18908490613365565b909155505060078201805461ff00191661040017905560405183907f1a3ba5e799a3ca15af6d73e4c4bb85bb5eeda708126848fd8ea59f306dc345f7905f90a25050610b9e612b13565b611e6a612ae5565b5f81815260036020526040902060018101546001600160a01b0316611ea257604051630781f76560e21b815260040160405180910390fd5b600781015460ff1615611ec8576040516306cd25f160e31b815260040160405180910390fd5b80600601545f03611eec576040516364b81b1960e11b815260040160405180910390fd5b8060060154421015611f11576040516364b81b1960e11b815260040160405180910390fd5b600381015460018201546001600160a01b03165f9081526020819052604081208054909190611f41908490613365565b9091555050600481015460028201546001600160a01b03165f9081526020819052604081208054909190611f76908490613365565b909155505060078101805460ff1916600117905560405182907fed3b159d4ab22ff6bd74b06107cdfe78d92731dab9333e02674fbf9b4f02f210905f90a250610b9e612b13565b611fc5612ae5565b5f83815260026020526040902060018101546001600160a01b0316611ffd57604051637b9bd77360e01b815260040160405180910390fd5b60016007820154610100900460ff16600481111561201d5761201d613143565b1461203b5760405163155fdee560e21b815260040160405180910390fd5b60028101546001600160a01b031633146120685760405163f7b619b160e01b815260040160405180910390fd5b806006015442101561208d57604051630537ce7360e31b815260040160405180910390fd5b60405163d47eed4560e01b81525f906001600160a01b037f0000000000000000000000000000000000000000000000000000000000000000169063d47eed45906120dd90879087906004016133e9565b602060405180830381865afa1580156120f8573d5f803e3d5ffd5b505050506040513d601f19601f8201168201806040525081019061211c9190613481565b90507f00000000000000000000000000000000000000000000000000000000000000006001600160a01b031663ef9e5e288286866040518463ffffffff1660e01b815260040161216d9291906133e9565b5f604051808303818588803b158015612184575f80fd5b505af1158015612196573d5f803e3d5ffd5b505060405163052571af60e51b81527f00000000000000000000000000000000000000000000000000000000000000006004820152603c60248201525f93507f00000000000000000000000000000000000000000000000000000000000000006001600160a01b0316925063a4ae35e09150604401608060405180830381865afa158015612226573d5f803e3d5ffd5b505050506040513d601f19601f8201168201806040525081019061224a9190613498565b905061225861012c42613378565b8160600151101561227c57604051634872a3af60e11b815260040160405180910390fd5b5f815f015167ffffffffffffffff169050600719826040015160030b12156122d457600882604001516122ae90613536565b6122b89190613557565b6122c390600a61365e565b6122cd90826133a2565b905061230e565b600719826040015160030b131561230e5760408201516122f690600719613557565b61230190600a61365e565b61230b908261338b565b90505b60408051610120810182528554815260018601546001600160a01b03908116602083015260028701541691810191909152600385015460608201526004808601546080830152600586015460a0830152600686015460c0830152600786015460ff808216151560e08501525f9361239d9390928992610100808601939204169081111561127b5761127b613143565b90505f88426040516020016123bc929190918252602082015260400190565b6040516020818303038152906040528051906020012090506040518060c001604052808a81526020018481526020018381526020015f841161240b5760018801546001600160a01b031661241a565b60028801546001600160a01b03165b6001600160a01b031681526020016124356201518042613365565b81525f60209182018190528b815260048083526040918290208451815592840151600184015590830151600283015560608301516003830180546001600160a01b0319166001600160a01b0390921691909117905560808301519082015560a0909101516005909101805460ff191691151591909117905560078601805461ff001916610200179055887f98d2e733005f2c8fff26aa68c4bbcb5ea9d2a936fb115fae33a25b1c5cc1a8b284846124ef6201518042613365565b6040805193845260208401929092529082015260600160405180910390a2843411156113b257336108fc61138b8734613378565b61252b612ae5565b6298968081101561254f57604051631fbaba3560e01b815260040160405180910390fd5b6125846001600160a01b037f000000000000000000000000000000000000000000000000000000000000000016333084612b9b565b335f90815260208190526040812080548392906125a2908490613365565b9091555050335f8181526020818152604091829020548251858152918201527f73a19dd210f1a7f902193214c0ee91dd35ee5b4d920cba8d519eca65a7b488ca91015b60405180910390a2610b9e612b13565b5f81156126215768056bc75e2d63100000612610858561338b565b61261a91906133a2565b90506116c5565b68056bc75e2d63100000612610858561338b565b61263d612ae5565b335f9081526020819052604090205481111561266c57604051631e9acf1760e31b815260040160405180910390fd5b335f908152602081905260408120805483929061268a908490613378565b909155506126c490506001600160a01b037f0000000000000000000000000000000000000000000000000000000000000000163383612b61565b335f8181526020818152604091829020548251858152918201527f92ccf450a286a957af52509bc1c9939d1a6a481783e142e41e2499f0bb66ebc691016125e5565b61270e612ae5565b5f81815260026020526040902060018101546001600160a01b031661274657604051637b9bd77360e01b815260040160405180910390fd5b5f6007820154610100900460ff16600481111561276557612765613143565b146127835760405163155fdee560e21b815260040160405180910390fd5b806006015442106127a75760405163762c06bd60e11b815260040160405180910390fd5b6004810154335f9081526020819052604090205410156127da57604051631e9acf1760e31b815260040160405180910390fd5b6004810154335f90815260208190526040812080549091906127fd908490613378565b9091555050600481015460018201546001600160a01b03165f9081526020819052604081208054909190612832908490613365565b90915550506002810180546001600160a01b0319163390811790915560078201805461ff001916610100179055600482015460405190815283907f3927fdfb276bded957a8440e6cc2636561c9a5dc5887d80ce9d87fb2857a30499060200160405180910390a350610b9e612b13565b6128aa612ae5565b5f81815260036020526040902060018101546001600160a01b03166128e257604051630781f76560e21b815260040160405180910390fd5b600781015460ff1615612908576040516306cd25f160e31b815260040160405180910390fd5b60018101546001600160a01b03163314801590612932575060028101546001600160a01b03163314155b156129505760405163277d24cb60e01b815260040160405180910390fd5b61295d6201518042613365565b6006820181905560408051338152602081019290925283917fa1bc12514c445b1f86e69a272a88710e8e2b296052f16afee3016cc3313a4ffc910160405180910390a250610b9e612b13565b6129b1612ae5565b5f81815260026020526040902060018101546001600160a01b03166129e957604051637b9bd77360e01b815260040160405180910390fd5b60016007820154610100900460ff166004811115612a0957612a09613143565b14612a275760405163155fdee560e21b815260040160405180910390fd5b8060060154421015612a4c57604051630537ce7360e31b815260040160405180910390fd5b6003810154600582015460078301545f92612a6b92909160ff166125f5565b60018301546001600160a01b03165f90815260208190526040812080549293508392909190612a9b908490613365565b909155505060078201805461ff00191661030017905560405183907fcda5f2547a1b1d97adfaac046a6eea00131f5f279c22322a4ee1af81ffb5f454905f90a25050610b9e612b13565b612aed612bd1565b60027f9b779b17422d0df92223018b32b4d1fa46e071723d6817e2486d003becc55f0055565b60017f9b779b17422d0df92223018b32b4d1fa46e071723d6817e2486d003becc55f0055565b5f805f80612b478686612c15565b925092509250612b578282612c5e565b5090949350505050565b612b6e8383836001612d1a565b6113c057604051635274afe760e01b81526001600160a01b03841660048201526024015b60405180910390fd5b612ba9848484846001612d7c565b611b4457604051635274afe760e01b81526001600160a01b0385166004820152602401612b92565b7f9b779b17422d0df92223018b32b4d1fa46e071723d6817e2486d003becc55f0054600203612c1357604051633ee5aeb560e01b815260040160405180910390fd5b565b5f805f8351604103612c4c576020840151604085015160608601515f1a612c3e88828585612de9565b955095509550505050612c57565b505081515f91506002905b9250925092565b5f826003811115612c7157612c71613143565b03612c7a575050565b6001826003811115612c8e57612c8e613143565b03612cac5760405163f645eedf60e01b815260040160405180910390fd5b6002826003811115612cc057612cc0613143565b03612ce15760405163fce698f760e01b815260048101829052602401612b92565b6003826003811115612cf557612cf5613143565b03612d16576040516335e2f38360e21b815260048101829052602401612b92565b5050565b60405163a9059cbb60e01b5f8181526001600160a01b038616600452602485905291602083604481808b5af1925060015f51148316612d70578383151615612d64573d5f823e3d81fd5b5f873b113d1516831692505b60405250949350505050565b6040516323b872dd60e01b5f8181526001600160a01b038781166004528616602452604485905291602083606481808c5af1925060015f51148316612dd8578383151615612dcc573d5f823e3d81fd5b5f883b113d1516831692505b604052505f60605295945050505050565b5f80807f7fffffffffffffffffffffffffffffff5d576e7357a4501ddfe92f46681b20a0841115612e2257505f91506003905082612ea7565b604080515f808252602082018084528a905260ff891692820192909252606081018790526080810186905260019060a0016020604051602081039080840390855afa158015612e73573d5f803e3d5ffd5b5050604051601f1901519150506001600160a01b038116612e9e57505f925060019150829050612ea7565b92505f91508190505b9450945094915050565b5f60208284031215612ec1575f80fd5b5035919050565b604051610120810167ffffffffffffffff81118282101715612ef857634e487b7160e01b5f52604160045260245ffd5b60405290565b80356001600160a01b0381168114612f14575f80fd5b919050565b80358015158114612f14575f80fd5b803560058110612f14575f80fd5b5f80828403610140811215612f49575f80fd5b61012080821215612f58575f80fd5b612f60612ec8565b915084358252612f7260208601612efe565b6020830152612f8360408601612efe565b6040830152606085013560608301526080850135608083015260a085013560a083015260c085013560c0830152612fbc60e08601612f19565b60e0830152610100612fcf818701612f28565b90830152909593013593505050565b5f8083601f840112612fee575f80fd5b50813567ffffffffffffffff811115613005575f80fd5b60208301915083602082850101111561301c575f80fd5b9250929050565b5f805f805f805f8060c0898b03121561303a575f80fd5b88359750602089013596506040890135955060608901359450608089013567ffffffffffffffff8082111561306d575f80fd5b6130798c838d01612fde565b909650945060a08b0135915080821115613091575f80fd5b5061309e8b828c01612fde565b999c989b5096995094979396929594505050565b5f602082840312156130c2575f80fd5b6116c582612efe565b5f805f604084860312156130dd575f80fd5b83359250602084013567ffffffffffffffff808211156130fb575f80fd5b818601915086601f83011261310e575f80fd5b81358181111561311c575f80fd5b8760208260051b8501011115613130575f80fd5b6020830194508093505050509250925092565b634e487b7160e01b5f52602160045260245ffd5b6005811061317357634e487b7160e01b5f52602160045260245ffd5b9052565b5f6101208201905082518252602083015160018060a01b0380821660208501528060408601511660408501525050606083015160608301526080830151608083015260a083015160a083015260c083015160c083015260e08301516131e060e084018215159052565b50610100808401516131f482850182613157565b505092915050565b5f805f6060848603121561320e575f80fd5b61321784612efe565b95602085013595506040909401359392505050565b8981526001600160a01b03898116602083015288166040820152606081018790526080810186905260a0810185905260c0810184905282151560e0820152610120810161327d610100830184613157565b9a9950505050505050505050565b5f805f805f60a0868803121561329f575f80fd5b853594506020860135935060408601359250606086013591506132c460808701612f19565b90509295509295909350565b5f805f80606085870312156132e3575f80fd5b8435935060208501359250604085013567ffffffffffffffff811115613307575f80fd5b61331387828801612fde565b95989497509550505050565b5f805f60608486031215613331575f80fd5b833592506020840135915061334860408501612f19565b90509250925092565b634e487b7160e01b5f52601160045260245ffd5b80820180821115610c2557610c25613351565b81810381811115610c2557610c25613351565b8082028115828204841417610c2557610c25613351565b5f826133bc57634e487b7160e01b5f52601260045260245ffd5b500490565b81835281816020850137505f828201602090810191909152601f909101601f19169091010190565b60208082528181018390525f906040600585901b8401810190840186845b8781101561347457868403603f190183528135368a9003601e1901811261342c575f80fd5b8901858101903567ffffffffffffffff811115613447575f80fd5b803603821315613455575f80fd5b6134608682846133c1565b955050509184019190840190600101613407565b5091979650505050505050565b5f60208284031215613491575f80fd5b5051919050565b5f608082840312156134a8575f80fd5b6040516080810167ffffffffffffffff82821081831117156134d857634e487b7160e01b5f52604160045260245ffd5b81604052845191508160070b82146134ee575f80fd5b9082526020840151908082168214613504575f80fd5b5060208201526040830151600381900b811461351e575f80fd5b60408201526060928301519281019290925250919050565b5f8160030b637fffffff19810361354f5761354f613351565b5f0392915050565b600382810b9082900b03637fffffff198112637fffffff82131715610c2557610c25613351565b600181815b808511156135b857815f190482111561359e5761359e613351565b808516156135ab57918102915b93841c9390800290613583565b509250929050565b5f826135ce57506001610c25565b816135da57505f610c25565b81600181146135f057600281146135fa57613616565b6001915050610c25565b60ff84111561360b5761360b613351565b50506001821b610c25565b5060208310610133831016604e8410600b8410161715613639575081810a610c25565b613643838361357e565b805f190482111561365657613656613351565b029392505050565b5f6116c563ffffffff8416836135c0565b5f6001820161368057613680613351565b506001019056fea264697066735822122074e544bf5c4b7ec466acbcfc8509e15594a49a0eaf712b51b0da23880986c11064736f6c63430008180033","linkReferences":{}},"methodIdentifiers":{"CHALLENGE_PERIOD()":"c3a079ed","MIN_DEPOSIT()":"e1e158a5","balances(address)":"27e235e3","calculateCollateral(uint256,uint256,bool)":"cd78054d","calculatePayout((bytes32,address,address,uint256,uint256,uint256,uint256,bool,uint8),uint256)":"1a153430","cancelOption(bytes32)":"a3f55f08","challengeChannel(bytes32)":"e8af74fe","channels(bytes32)":"7a7ebd7b","createOption(uint256,uint256,uint256,uint256,bool)":"63c25a90","deposit(uint256)":"b6b55f25","disputeSettlement(bytes32,bytes[])":"31b94d5c","ethUsdPriceId()":"6a18ec49","exerciseOption(bytes32,bytes[])":"b3cd431a","expireOption(bytes32)":"efb599e9","finalizeChannel(bytes32)":"ada11369","finalizeSettlement(bytes32)":"19f3b062","getBalance(address)":"f8b2cb4f","getChannel(bytes32)":"831c2b82","getEthUsdPrice()":"a0a8045e","getOption(bytes32)":"44374b70","getPendingSettlement(bytes32)":"9e17c1ec","openChannel(address,uint256,uint256)":"51d8f404","options(bytes32)":"5b4c3543","pendingSettlements(bytes32)":"c8c132e4","purchaseOption(bytes32)":"e3bde46b","pyth()":"f98d06f0","updateChannelState(bytes32,uint256,uint256,uint256,bytes,bytes)":"20d93aa7","usdc()":"3e413bee","withdraw(uint256,uint256,bytes)":"744fb6ca","withdrawDirect(uint256)":"e168f99d","withdrawEth()":"a0ef91df","withdrawalNonces(address)":"3f0d2d50"},"id":0}